:020000040800F2
:100000000040002071190008F1180008F3180008DA
:1000100000000000000000000000000000000000E0
:10002000000000000000000000000000F5180008BB
:100030000000000000000000F7180008F918000890
:10004000C1190008C1190008C1190008C119000828
:10005000C1190008C1190008C1190008C119000818
:10006000C1190008C1190008C1190008C119000808
:10007000C1190008C1190008C1190008C1190008F8
:10008000C1190008C1190008C1190008C1190008E8
:10009000C1190008C1190008C1190008C1190008D8
:1000A000C1190008C1190008C11900080119000888
:1000B000C1190008C1190008C1190008C1190008B8
:1000C00010B5064C2378002B07D1054B002B02D02E
:1000D000044800E000BF0123237010BD040000208D
:1000E000000000001C1A0008044B10B5002B03D0C0
:1000F0000349044800E000BF10BDC04600000000F6
:10010000080000201C1A0008002243088B4274D308
:1001100003098B425FD3030A8B4244D3030B8B4208
:1001200028D3030C8B420DD3FF22090212BA030C11
:100130008B4202D31212090265D0030B8B4219D3F2
:1001400000E0090AC30B8B4201D3CB03C01A524112
:10015000830B8B4201D38B03C01A5241430B8B425A
:1001600001D34B03C01A5241030B8B4201D30B0343
:10017000C01A5241C30A8B4201D3CB02C01A52416A
:10018000830A8B4201D38B02C01A5241430A8B422D
:1001900001D34B02C01A5241030A8B4201D30B0216
:1001A000C01A5241CDD2C3098B4201D3CB01C01A30
:1001B000524183098B4201D38B01C01A524143093A
:1001C0008B4201D34B01C01A524103098B4201D328
:1001D0000B01C01A5241C3088B4201D3CB00C01A95
:1001E000524183088B4201D38B00C01A524143080D
:1001F0008B4201D34B00C01A5241411A00D2014632
:10020000524110467047FFE701B5002000F006F8A4
:1002100002BDC0460029F7D076E770477047C04658
:100220000023C25C0133002AFBD1581E704710B571
:10023000040000F017FDFA218900FFF765FF00F0C8
:1002400073F8012000222100404200F033F8002022
:1002500010BD000010B5064A136810210B4313604F
:100260000020FFF7E4FF01F0F1FA002010BDC046C6
:1002700000200240024A1368013313607047C046F1
:1002800020000020014B18687047C0462000002065
:1002900030B583B00190FFF7F5FF0500019C631CAA
:1002A00000D00134FFF7EEFF401BA042FAD303B0A9
:1002B00030BD000070B5002811DB8408134DC03438
:1002C000A400625903231840C000FC331E0086407E
:1002D000B24389010B4083401343635170BDC0B2E8
:1002E0000F220240083A920806329200084BD318B7
:1002F0005D6803242040C000FF2214008440A54311
:1003000089010A4082402A435A60E7E700E100E0A1
:1003100000ED00E01F2318401E3B8340014A13609C
:100320007047C04600E100E001380A4B98420FD800
:10033000094A50600948036A1B021B0AC0210906CA
:100340000B43036200239360073313600020704760
:100350000120FCE7FFFFFF0010E000E000ED00E0FF
:1003600010B52123C35C022B03D004238363012037
:1003700010BD026813680E218B43136001680A6880
:1003800001239A430A60C26B1900046CA1405160BA
:10039000212283541F330022C254436B002B02D00E
:1003A00098470020E4E70020E2E70000F0B5C646E9
:1003B00000B582B0002338E0042600E00026AE40FD
:1003C00035003D430234A400574EA551574C2568D3
:1003D0004246D4432E0026404A68D20302D5424604
:1003E00015432E00514D2E606D682E0026404A6840
:1003F000920302D5424615432E004C4D6E60AD6807
:100400002E0026404A68D20202D5424615432E00ED
:10041000464DAE60ED682C404A68920202D54246D5
:100420002A431400414AD46001330A681400DC40B6
:1004300076D001259D402A409046F5D04C68022C8C
:1004400001D0122C0ED1DC080834A400275807264E
:100450001E40B6000F22B24097430A69B240160010
:100460003E43265002685F0003242600BE40F64348
:10047000324094464A681440BC40624614430460CB
:100480004C68621E012A03D9112C01D0122C10D104
:1004900084683440A446CC68BC40624614438460FF
:1004A0004468AC434A681209012515409D40254324
:1004B0004560C46826408C68BC403443C4604A68C8
:1004C000D200B1D51A4DAE6901242643AE61AD69A3
:1004D0002C400194019C9C08A51CAD00124EAF5904
:1004E00003261E40B5000F26AE40B7439026F60502
:1004F000B04200D162E70F4EB0420BD00E4EB04278
:100500000AD00E4EB04209D00D4EB04200D153E792
:10051000052654E7012652E7022650E703264EE758
:1005200002B004BC9046F0BD000001400004014050
:10053000001002400004004800080048000C004879
:1005400000100048002A01D1816270478161FCE7F8
:1005500070B582B004000368DB072BD5B34B5A6833
:100560000C231340042B1DD0B04B5A680C231340AE
:10057000082B0ED06368012B41D0002B56D1AB4B1A
:100580001A68AB490A401A601A68AA490A401A60F8
:100590003BE0A64B5B68C02252021340802252020D
:1005A0009342E7D1A14B1B689B0303D56368002BE3
:1005B00000D139E223689B0778D59C4B5B680C22FD
:1005C0001A4262D0994B5A680C231340082B53D01F
:1005D000E368002B00D18BE0944A136801210B43A0
:1005E0001360FFF74FFE0500904B1B689B0776D406
:1005F000FFF748FE401B0228F6D9032017E28B4A7A
:10060000116880235B020B4313606368002B25D0C5
:10061000FFF738FE0500854B1B689B03CAD4FFF724
:1006200031FE401B6428F6D9032000E2052B09D0D7
:100630007E4B1A687E490A401A601A687D490A4052
:100640001A60E2E7794B19688022D2020A431A60E5
:100650001968802252020A431A60D6E7FFF712FE99
:100660000500724B1B689B03A4D5FFF70BFE401BD4
:100670006428F6D90320DAE16C4B5B68C022520291
:100680001340802212029342A2D1684B1B689B0741
:1006900004D5E368012B01D00120C8E163490B6850
:1006A000F82293432269D20013430B6023681B078F
:1006B00044D5E369002B2ED05C4A536A01210B43D9
:1006C0005362FFF7DFFD0500584B5B6A9B0735D48B
:1006D000FFF7D8FD401B0228F6D90320A7E15349B4
:1006E0000B68F82293432269D20013430B60DDE7C5
:1006F0004E4A136801218B431360FFF7C3FD0500C9
:100700004A4B1B689B07D1D5FFF7BCFD401B022855
:10071000F6D903208BE1454A536A01218B4353628A
:10072000FFF7B0FD0500414B5B6A9B0706D5FFF75D
:10073000A9FD401B0228F6D9032078E123685B0756
:1007400000D47FE0394BDB69DB001DD4374AD16927
:10075000802040050143D161D36903400193019B8F
:100760000125354B1B68DB0510D5A368012B21D073
:10077000002B36D12D4B1A6A01218A431A621A6A5C
:1007800003318A431A621AE00025EAE72A4A11680F
:1007900080235B000B431360FFF774FD0600264BBC
:1007A0001B68DB05E1D4FFF76DFD801B6428F6D9DB
:1007B00003203CE11D4A136A01210B431362A36825
:1007C000002B24D0FFF75EFD0600184B1B6A9B0729
:1007D00036D4FFF757FD801B184B9842F5D90320FC
:1007E00025E1052B09D0114B1A6A01218A431A62AF
:1007F0001A6A03318A431A62E1E70C4B1A6A042130
:100800000A431A621A6A03390A431A62D7E7FFF7E2
:1008100039FD0600054B1B6A9B0711D5FFF732FD1A
:10082000801B064B9842F5D9032000E100100240DE
:10083000FFFFFEFFFFFFFBFF00700040881300007A
:10084000012D3AD02368DB0610D56369012B3AD01D
:10085000053358D1784A536B04218B435363536B50
:10086000F4318B43A169C9000B43536323689B0692
:1008700000D482E0704B5A680C2313400C2B60D0DC
:100880006D4B5A680C231340082B53D0236A002B5E
:1008900060D0694A516B80235B020B435363FFF7BF
:1008A000F1FC0500644B5B6BDB0366D4FFF7EAFCED
:1008B000401B0228F6D90320B9E05F4AD3695F499B
:1008C0000B40D361BEE75C4B5A6B04210A435A6369
:1008D0005A6B03390A435A63FFF7D4FC0500564BA1
:1008E0005B6B9B0706D4FFF7CDFC401B0228F6D9B3
:1008F00003209CE050494B6BF8229343A269D2003D
:1009000013434B63B2E74C4B5A6B04210A435A63BF
:100910005A6B03398A435A63FFF7B4FC0500464B10
:100920005B6B9B07A2D5FFF7ADFC401B0228F6D9F5
:1009300003207CE0404B5B68C0225202134093428C
:10094000A4D13D4B5B6BDB0317D5236A012B14D07D
:1009500001206CE0384A536B39490B405363FFF771
:1009600091FC0500344B5B6BDB0306D5FFF78AFC7B
:10097000401B0228F6D9032059E0636A002B55D0AA
:100980002D4A51680C220A40082A52D0022B12D05C
:10099000294A13682B490B401360FFF773FC0400CE
:1009A000254B1B689B013DD5FFF76CFC001B022803
:1009B000F6D903203BE0204A136822490B4013601C
:1009C000FFF760FC05001C4B1B689B0106D5FFF779
:1009D00059FC401B0228F6D9032028E0164BDA6A9E
:1009E0000F218A43216B0A43DA625A6816490A408A
:1009F000E16AA06A01430A435A60196880225204DE
:100A00000A431A60FFF73EFC04000B4B1B689B0176
:100A100006D4FFF737FC001B0228F6D9032006E0B6
:100A2000002004E0002002E0012000E0002002B0ED
:100A300070BD0120FBE7C04600100240FFFFFFEF42
:100A4000FFFFFEFFFFFFFFFEFF7FC2FF30B589B053
:100A500004AA1F4B180032C832C2110002680A6093
:100A60006A46103313CB13C21B681360194B5A68C4
:100A70000C231340082B04D00C2B26D0164809B0A9
:100A800030BD910C0F23194004A8445C1149C96A78
:100A90000B406946C95CC0235B021A4080235B029D
:100AA0009A4208D0C0235B029A4209D00A48FFF755
:100AB0002BFB6043E3E70848FFF726FB6043DEE7D4
:100AC0000648FFF721FB6043D9E70448D7E7C04653
:100AD000341A00080010024000127A00006CDC0298
:100AE00070B505000C00594B1A68012313408B4266
:100AF0000BD256490B680122934323430B600B68CA
:100B00001A40A24201D0012070BD2B689B0706D578
:100B10004F4A5368F0218B43A9680B4353602B68FD
:100B2000DB0763D56B68012B09D0022B28D0032B80
:100B30002CD0474A1268920705D40120E4E7444AC2
:100B4000126892037FD542494A68032082431343C7
:100B50004B60FFF797FB06006B68012B1CD0022B44
:100B600028D0032B34D03A4B5B680C221A423DD07C
:100B7000FFF788FB801B374B9842F4D90320C3E76B
:100B8000334A12689201DED40120BDE7304A526B2D
:100B9000D203D8D40120B7E72D4B5A680C23134059
:100BA000042B23D0FFF76EFB801B2A4B9842F3D90E
:100BB0000320A9E7264B5A680C231340082B15D0B5
:100BC000FFF760FB801B234B9842F3D903209BE780
:100BD0001F4B5A680C2313400C2B07D0FFF752FB16
:100BE000801B1C4B9842F3D903208DE7174B1A68E2
:100BF00001231340A3420BD914490B6801229343EC
:100C000023430B600B681A40A24201D001207BE70E
:100C10002B685B0706D50E4A53680F490B40E968FD
:100C20000B435360FFF712FF094B5A6812090F2359
:100C300013400A4AD35CD840094B18600020FFF7E4
:100C4000F6FA002060E701205EE7C046002002407F
:100C50000010024088130000FFF8FFFF541A00083C
:100C600000000020014B18687047C04600000020BB
:100C700010B5FFF7F7FF044B5A68120A0723134019
:100C8000024AD35CD84010BD00100240641A00082C
:100C900070B582B004000368DB0335D54B4BDB69CC
:100CA000DB0066D4494AD169802040050143D16107
:100CB000D36903400193019B0125454B1B68DB056C
:100CC00059D5424B1B6AC0229200134013D0616871
:100CD0000A409A420FD03D4B186A3E4A02401E6AB3
:100CE0008021490231431962196A3B4E3140196231
:100CF0001A62C30753D4354A136A36490B406168F8
:100D00000B431362012D59D02368DB0706D52F4A08
:100D1000136B03218B43A1680B43136323689B0769
:100D200006D52A4A136B2D490B40E1680B43136328
:100D300023689B0606D5254A136B10218B43216936
:100D40000B43136323689B0306D5204A136B802152
:100D50008B43A1690B43136323685B0533D51B4A9F
:100D6000136B40218B4361690B431363002002B076
:100D700070BD0025A1E7164A116880235B000B4374
:100D80001360FFF77FFA0600114B1B68DB0598D450
:100D9000FFF778FA801B6428F6D90320E7E7FFF70E
:100DA00071FA0600094B1B6A9B07A4D4FFF76AFA85
:100DB000801B0B4B9842F5D90320D8E7D36909492A
:100DC0000B40D361A0E70020D1E7C04600100240ED
:100DD00000700040FFFCFFFFFFFFFEFFFFFFFCFF76
:100DE00088130000FFFFFFEF0268136806490B40FD
:100DF0001360026893682331FF318B4393606A2349
:100E00002022C2547047C046DFFEFFFF30B56A2380
:100E1000C35C202B5AD100295AD0002A5AD08368AB
:100E200080246401A34218D06824045D012C53D0AF
:100E3000682401250555416558214252023142522C
:100E40008022520193420FD0002B1CD10369002B4A
:100E500015D15C33FF22C25219E00469002CE3D1A2
:100E6000CC07E1D5012032E00369002B03D15C33CC
:100E70001A4AC2520BE05C23FF22C25207E05C23F5
:100E80007F22C25203E080225205934213D00023F6
:100E9000C3666A2222218154023A8354026893680D
:100EA00021390B4393600268116890235B000B4368
:100EB000136000200BE00369002B03D15C337F2219
:100EC000C252E4E75C233F22C252E0E7022030BD79
:100ED0000120FCE70120FAE70220F8E7FF0100000B
:100EE0007047704710B5406A00235A228352083A6F
:100EF0008352FFF7F6FF10BD70B5040083680269E6
:100F0000134342691343C269134301680A68734873
:100F1000024013430B602268536871490B40E1683B
:100F20000B435360A269236A1A4321688B686D489A
:100F3000034013438B6025686B4B9D4226D06B4B5F
:100F40009D4237D06A4B9D4256D06A4B9D424FD04E
:100F5000102380221202E16991424FD0022B00D16E
:100F6000A0E000D88EE0042B00D1A7E0082B00D031
:100F7000B2E06168480880231B029C466044FFF78A
:100F8000C3F80004000CE860002060E05A4B1A6BC4
:100F900003231340012B09D0002B05D0022B07D0CF
:100FA000032B27D01023D4E70023D2E70423D0E774
:100FB0000823CEE7504B1B6BC022920213408022C5
:100FC000520293420ED009D98022920293420BD052
:100FD000C0229202934209D10223BAE7002B05D125
:100FE0000023B6E70423B4E70823B2E71023B0E7F1
:100FF0000023AEE70223ACE70023AAE7022B27D0A9
:101000000FD9042B2FD0082B39D1636858088023BF
:101010005B029C4660446168FFF776F883B200206B
:101020000CE0002B2BD1FFF723FE400063685B0828
:10103000C0186168FFF768F883B200200F2219001A
:1010400091435B10083A13400B432268D36070BD94
:1010500063685808294B9C4660446168FFF754F860
:1010600083B20020EAE7FFF7F1FC400063685B0809
:10107000C0186168FFF748F883B20020DEE701205E
:101080000023DBE7002B27D1FFF7F2FD63685B0845
:10109000C0186168FFF738F823680004000CD860B6
:1010A0000020D4E761684808154B9C466044FFF770
:1010B0002BF80004000CE8600020C8E7FFF7C6FC2E
:1010C00063685B08C0186168FFF71EF823680004B6
:1010D000000CD8600020BAE70120B8E7F369FFEF01
:1010E000FFCFFFFFFFF4FFFF003801400044004046
:1010F00000480040004C0040001002400024F40072
:1011000000127A00436ADB0706D5026853682C494F
:101110000B40816A0B435360436A9B0706D5026804
:10112000536828490B40C16A0B435360436A5B070D
:1011300006D50268536824490B40016B0B4353608A
:10114000436A1B0706D50268536820490B40416B70
:101150000B435360436ADB0606D5026893681C495B
:101160000B40816B0B439360436A9B0606D5026874
:10117000936818490B40C16B0B439360436A5B064D
:101180000BD50268536814490B40016C0B43536044
:1011900080235B03026C9A420AD0436A1B0606D581
:1011A000026853680D490B40816C0B4353607047D4
:1011B000026853680A490B40416C0B435360ECE7EB
:1011C000FFFFFDFFFFFFFEFFFFFFFBFFFF7FFFFFB6
:1011D000FFEFFFFFFFDFFFFFFFFFEFFFFFFFF7FF67
:1011E000FFFF9FFFF0B5C64600B506000C001700D4
:1011F0009846069D3368DB6923401B1B5A425341C6
:10120000BB421ED16B1CF5D0002D05D0FFF73AF87C
:101210004346C01AA842EDD9326813680B490B4007
:10122000136032689368A331FF318B4393602023AE
:101230006922B3540132B35448330022F2540320DC
:1012400000E0002004BC9046F0BDC0465FFEFFFFFA
:10125000F0B585B004000E0017001D006923C35CC3
:10126000202B59D100295AD0002A5AD080235B0163
:1012700082689A4213D06823E35C012B53D0682321
:101280000122E2540023E36669332032E254FEF780
:10129000F9FF03905023E7520233E7520AE0036953
:1012A000002BE8D1CB07E6D5012036E03378226861
:1012B000138501365223E35A9BB2002B1CD05222D5
:1012C000A35A013B9BB2A3520095039B00228021AD
:1012D0002000FFF787FF002827D180235B01A26849
:1012E0009A42E3D12369002BE0D13388DB05DB0D83
:1012F000226813850236DDE70095039B002240211A
:101300002000FFF76FFF002811D169232022E2544B
:10131000013B0022E25400E0022005B0F0BD0120B4
:10132000FBE70120F9E70220F7E70320F5E70320B8
:10133000F3E7000030B583B004000023C366FEF776
:10134000A1FF05002368194A93420DD0184A934221
:101350000AD020236922A3540132A3544833002227
:10136000E254002003B030BD1B681B0710D4236873
:101370001B685B07EDD580210E4B00932B000022EC
:10138000C9032000FFF72EFF0028E2D00320E9E781
:101390008021084B00932B00002289032000FFF7D7
:1013A00021FF0028E3D00320DCE7C04600380140DD
:1013B00000440040FFFFFF0110B5041E30D0692338
:1013C000C35C002B22D069232422E25422681368D4
:1013D00001218B4313602000FFF78EFD012814D0FC
:1013E000636A002B18D1226853680E490B40536082
:1013F000226893682A218B439360226813682939F5
:101400000B4313602000FFF795FF10BD68330022E7
:10141000C25400F033FAD6E72000FFF773FEE2E78C
:101420000120F2E7FFB7FFFF6923C35C212B2FD117
:101430003133C35A9BB2002B11D080235B018268E9
:101440009A4218D0C36C5A1CC2641B780268138578
:101450005222835A013B9BB28352002019E002685A
:10146000136880218B4313600268136840390B4373
:10147000136000200DE00369002BE3D1C36C1B88CF
:10148000DB05DB0D02681385C36C0233C364DFE741
:101490000220704710B50268136840218B43136027
:1014A00069232022C254FFF71BFD002010BD00005D
:1014B00010B55C23C25A0E33C35C222B32D10368B1
:1014C0009B8C9BB28021490184688C420ED0D2B2A1
:1014D000416D4C1C446513400B705A22835A013BEA
:1014E0009BB28352002B0BD0002021E00169002920
:1014F000EDD11340426D1380436D02334365ECE739
:10150000026813680B490B4013600268936823312B
:10151000FF318B4393606A232022C25400F02CF9E0
:10152000002005E00268936908210B4393610220C3
:1015300010BDC046DFFEFFFF70B504000168CB6937
:1015400008680F221A4003D19D0601D585065BD499
:101550008D68002A6ED001222A4003D190267600A1
:10156000304267D0DD0706D5C50504D501250D62DB
:10157000E16E2943E166990708D5002A06D0216863
:1015800002250D62E16E02352943E166590708D54F
:10159000002A06D0216804250D62E16E023D294330
:1015A000E166190709D5810601D4002A05D0226811
:1015B00008211162E26E0A43E266E26E002A45D01B
:1015C0009B0601D5830623D4E36E1B0703D423684F
:1015D0009B685B0628D52000FFF706FC23689A6805
:1015E00052061DD59A6840218A439A60636E002B8B
:1015F00012D0214A5A63606EFEF7B2FE002825D051
:10160000606E436B984721E02000FFF751FF1DE01B
:101610002000FFF74DFFD7E72000FFF762FC15E041
:101620002000FFF75EFC11E02000FFF75AFC0023CA
:10163000E3660BE0DA0201D56A0208D41A0601D586
:10164000020610D45B0601D5430610D470BD80237A
:101650005B030B6220236922A3540132A3542000B0
:1016600000F00CF8F2E72000FFF7DEFEEEE72000C6
:10167000FFF710FFEAE7C046E50E000870470000DC
:10168000F0B589B01422002103A800F0BFF91C4B6B
:10169000596980208002014359615A6902400092D1
:1016A000009A596980200003014359615A69024038
:1016B0000192019A5A698021C9020A435A615B6901
:1016C0000B400293029BF027BF000E4D0022390011
:1016D0002800FEF737FF012603960B4B04930024E6
:1016E0000594902003A9C005FEF760FE03970496B9
:1016F0000594069403A92800FEF758FE09B0F0BD32
:1017000000100240000800480000121010B50B48FD
:101710000B4B03609623DB01436080235B018360F6
:101720000023C3608022D20002610C2242618361E7
:10173000C36103624362FFF73FFE10BD2400002037
:101740000038014030B583B004000D000800FEF7FA
:1017500067FD82B20A2329002000FFF779FD01A965
:10176000044B0B800A2302222000FFF771FD03B017
:1017700030BDC0460D0A000070B50268084B9A42A1
:1017800000D070BD074D084C6423012229002000C1
:10179000FFF75EFD012229002000FFF737FBF0E78D
:1017A00000380140940000202400002030B599B09A
:1017B000302200210CA800F029F91022002107A8EE
:1017C00000F024F91C220021684600F01FF90224D1
:1017D0000B9401250E9510230F93149480231B0264
:1017E000159380235B0316930BA8FEF7B1FE072326
:1017F00007930894002409940A94012107A8FFF78D
:101800006FF9009502946846FFF742FA19B030BDAF
:1018100010B5FEF71FFDFFF7C9FFFFF731FFFFF718
:1018200075FF074C07492000FFF78CFFFA20800066
:10183000FEF72EFD012204492000FFF7E7FAFEE73C
:10184000240000206C1A00089400002082B00A4B8B
:10185000996901221143996199690A400092009A9D
:10186000DA69802149050A43DA61DB690B4001939B
:10187000019B02B07047C0460010024010B588B00E
:1018800004001422002103A800F0C0F82268154BC0
:101890009A4201D008B010BD134B99698020C00155
:1018A000014399619A6902400192019A5A69802123
:1018B000C9020A435A615B690B400293029BC02331
:1018C0000393BE3B04930133069303A90748FEF735
:1018D0006DFD002200211B20FEF7ECFC1B20FEF713
:1018E00019FDD7E70038014000100240000400480D
:1018F0007047FEE77047704710B5FEF7BBFC10BDA0
:1019000010B50248FFF718FE10BDC04624000020A5
:10191000114B1A6801210A431A605A680F480240A5
:101920005A601A680E4802401A601A680D48024050
:101930001A605A680C4802405A60DA6A0F208243E3
:10194000DA621A6B094802401A635A6B8A435A6377
:1019500000229A607047C046001002400CB8FF0891
:10196000FFFFF6FEFFFFFBFFFFFFC0FF2CFEFCFFAB
:101970000D4885460D480E490E4A002302E0D45812
:10198000C4500433C4188C42F9D30B4A0B4C0023C7
:1019900001E013600432A242FBD3FFF7B9FF00F06D
:1019A00011F8FFF735FFFEE700400020000000209F
:1019B00004000020881A000804000020D80000203D
:1019C000FEE7000070B500260C4D0D4C641BA41002
:1019D000A64209D1002600F021F80A4D0A4C641BEA
:1019E000A410A64205D170BDB300EB58984701364C
:1019F000EEE7B300EB5898470136F2E7801A00088B
:101A0000801A0008801A0008841A000803001218BF
:101A1000934200D1704719700133F9E7F8B5C04619
:101A2000F8BC08BC9E467047F8B5C046F8BC08BC78
:041A30009E46704717
:101A340002030405060708090A0B0C0D0E0F10100B
:101A44000102030405060708090A0B0C0D0E0F100A
:101A5400000000000000000001020304060708095A
:101A640000000000010203047072696E7420736F39
:0C1A74006D657468696E672E2E2E0000F0
:041A8000E900000871
:041A8400C100000895
:041A880000127A00CE
:040000050800197165
:00000001FF
